1234567890John                Doe                 12345678912345      250007500EURVejnavn                       12   2    Side1Warsaw              1234PL32457654johndoe@email.com                                 
0987654321Jane                Smith               98765432154321      320000000EURGadevej                       34   1    Side1Copenhagen          2345DK65547665janesmith@email.com                               
1122334455Alice               Johnson             11223344555678      410005000EURBoulevard                     56   3    Side1Berlin              3456DE32125487alicejohnson@email.com                            
6677889900Bob                 Brown               66778899009987      150000000EURStraede                       78   4    Side1Oslo                4567NO54735424bobbrown@email.com                                
3344556677Charlie             Davis               33445566778899      275025010EURAvenue                        90   5    Side1Helsinki            5678FI53574532charliedavis@email.com                            
